:100000000C94A2020C94BD020C94BD020C94BD028F
:100010000C94BD020C94BD020C94BD020C94BD0264
:100020000C94BD020C94BD020C94BD020C949A0376
:100030000C94BD020C94BD020C94E1030C94BD021F
:100040000C94BD020C94BD020C94BD020C94BD0234
:100050000C94BD020C94BD020C94BD020C94BD0224
:100060000C94BD020C94BD022020202052756E6EAF
:10007000696E67206F6E2041546D65676133323859
:100080005020285075726520432C204E6F204C69FB
:1000900062726172696573290020202020464952EE
:1000A00041202D204661756C7420496E6A65637429
:1000B000696F6E2026205265636F766572792041E4
:1000C0006E616C79736973004E6F7420737572651D
:1000D0002E2E2E20736F6D657468696E67206861BF
:1000E0007070656E656400467265736820706F7726
:1000F00065722D6F6E2028666972737420626F6F4F
:10010000742900536F6D656F6E652070726573732F
:100110006564207468652072657365742062757407
:10012000746F6E004C6F7720766F6C74616765201A
:100130006465746563746564202862726F776E2DE0
:100140006F75742900492063726173686564206269
:10015000757420746865205761746368646F6720E4
:1001600062726F75676874206D65206261636B20D1
:10017000746F206C6966652100207C5F7C205C5F69
:100180005C5F5F5F5F5F7C5F5F5F5F2F205C5F5FD7
:100190005F2F205C5F5F5F2F207C5F7C2020002032
:1001A0007C20205F203C7C207C5F5F5F7C207C5F2C
:1001B00029207C207C5F7C207C207C5F7C207C7CD8
:1001C000207C202000207C207C5F29207C20205F58
:1001D0007C207C20205F205C7C207C207C207C207C
:1001E0007C207C207C7C207C202000207C20205FC8
:1001F000205C7C205F5F5F5F7C205F5F2029202F79
:10020000205F205C202F205F205C5F2020205F7C0F
:100210000020205F5F5F5F20205F5F5F5F5F205F88
:100220005F5F5F2020205F5F5F2020205F5F5F2097
:100230005F5F5F5F5F20005468652057415443480B
:10024000444F47207361766564206D6521004865E1
:1002500079212049206A75737420776F6B6520754A
:10026000702062656361757365206F663A20007C5B
:10027000204F6F7073212049206372617368656439
:100280002E20546F74616C206372617368657320F3
:10029000736F206661723A20002B2D2D2D2D2D2D90
:1002A0002D2D2D2D2D2D2D2D2D2D2D2D2D2D2D2D7E
:1002B0002D2D2D2D2D2D2D2D2D2D2D2D2D2D2D2D6E
:1002C0002D2D2D2D2B00546F74616C2074696D657C
:1002D0002072756E6E696E673A200054696D6573A1
:1002E000204927766520637261736865643A20004F
:1002F0005761746368646F672074696D656F7574A6
:100300003A20327300496E6A656374696E672066CD
:1003100061756C74732065766572793A20006D732F
:1003200000486561727462656174206576657279F2
:100330003A200041202D20466C697070696E67205C
:1003400072616E646F6D20626974732028646174D9
:100350006120636F7272757074696F6E29004174E9
:100360007461636B206D6F64653A20003D3D3D3DD7
:100370003D3D3D3D3D3D3D3D3D3D3D3D3D3D3D3DAD
:100380003D3D3D3D3D3D3D3D3D3D3D3D3D3D3D3D9D
:100390003D3D3D3D3D3D3D3D3D3D3D3D3D3D3D3D8D
:1003A0003D3D3D3D3D3D3D3D00416C72696768749A
:1003B0002C206865726520776520676F2120537453
:1003C000617274696E6720746865206D61696E2062
:1003D0006C6F6F702E2E2E00456E61626C696E67B9
:1003E00020746865207761746368646F6720286D86
:1003F0007920677561726469616E20616E67656CF2
:10040000292E2E2E0041726D696E6720746865205A
:100410006661756C7420696E6A6563746F722028FA
:10042000746865207361626F74657572292E2E2E53
:10043000005374617274696E67206D7920696E74FF
:1004400065726E616C20636C6F636B2E2E2E0020C4
:100450007C0073207C2041747461636B733A2000CC
:10046000207C2052756E6E696E673A2000202A2A21
:100470002A00203C3C20434F5252555054494F4E85
:1004800020444554454354454421204A756D7065C8
:10049000642062792000436F756E7465723A2000A3
:1004A0002B2D2D2D2D2D2D2D2D2D2D2D2D2D2D2D7E
:1004B0002D2D2D2D2D2D2D2D2D2D2D2D2D2D2D2D6C
:1004C0002B0025007C2053797374656D2075707442
:1004D000696D653A20007C20546F74616C206372F2
:1004E00061736865733A20007C204661756C747393
:1004F00020696E6A65637465643A20007C20436FEE
:10050000756E7465722076616C75653A20007300B3
:100510007C20546869732073657373696F6E3A2029
:10052000002B2D2D2D2D2D2D2D2D20535441545587
:1005300053205245504F5254202D2D2D2D2D2D2D11
:100540002D2B000011241FBECFEFD8E0DEBFCDBFA2
:1005500084B780932F0114BEE0E6F0E088E1808349
:10056000108221E0A0E0B1E001C01D92A033B207EB
:10057000E1F70E9404040C941A080C940000909176
:10058000C00095FFFCCF8093C60008958DE00E94C7
:10059000BF028AE00C94BF02CF92DF92EF92FF92EB
:1005A000CF93DF9300D000D000D0CDB7DEB7698302
:1005B0007A838B839C8310922E0189819A81AB81EF
:1005C000BC81892B8A2B8B2B79F480E326960FB67E
:1005D000F894DEBF0FBECDBFDF91CF91FF90EF90BB
:1005E000DF90CF900C94BF02AEE2B1E0BE83AD834A
:1005F0008AE0C82ED12CE12CF12C69817A818B8183
:100600009C81A70196010E94DE07605DED81FE815D
:100610006293FE83ED8389819A81AB81BC812983BA
:100620003A834B835C830A97A105B10530F7AD810E
:10063000BE818D91BE83AD8381110DC026960FB60C
:10064000F894DEBF0FBECDBFDF91CF91FF90EF904A
:10065000DF90CF9008950E94BF02E9CFCF93DF9340
:1006600000D000D0CDB7DEB79C0150E040E0298338
:100670003A834B835C83CA01B9010F900F900F90AE
:100680000F90DF91CF910C94CC02CF93DF93EC01CC
:10069000FE0184912196811103C0DF91CF910895CD
:1006A0000E94BF02F5CFCF93DF9300D000D0CDB72B
:1006B000DEB78FB7F89420911A0130911B01409159
:1006C0001C0150911D0129833A834B835C838FBFAA
:1006D00069817A818B819C810F900F900F900F9090
:1006E000DF91CF910895F999FECF11BC80BD6CBB0D
:1006F0008FB7F894FA9AF99A8FBF0895F999FECFB7
:1007000011BC80BDF89A8CB308950F931F93CF93BB
:10071000DF93EC010E947E03082F10E0CE010196CA
:100720000E947E039801382BC901DF91CF911F9160
:100730000F9108950F920FB60F921F9211242F93CD
:100740003F938F939F93EF93FF938091210190911B
:1007500022010196909322018093210181E08093F0
:10076000200180911E0190911F01892BF9F08FB714
:10077000F89420912101309122018FBFE22FE37084
:1007800080911E0190911F01E80FF92FF11D9081BA
:1007900087E0829F802D1124877021E030E001C026
:1007A000220F8A95EAF7892F82278083FF91EF91A4
:1007B0009F918F913F912F911F900F900FBE0F909F
:1007C00018951F921FB61F9211248F939F93AF937A
:1007D000BF9380911A0190911B01A0911C01B091CF
:1007E0001D010196A11DB11D80931A0190931B015B
:1007F000A0931C01B0931D01BF91AF919F918F9168
:100800001F901FBE1F901895CDB7DEB728970FB663
:10081000F894DEBF0FBECDBF1092C50087E0809375
:10082000C40088E18093C10086E08093C2000E94EA
:10083000C6028CE693E00E9445030E94C60289E945
:1008400090E00E9445030E94C60288E690E00E9464
:1008500045030E94C6028CE693E00E9445030E9475
:10086000C6020E94C60270902F018EE492E00E94A0
:10087000450373FE5EC387E392E00E9445030E9436
:10088000C6020E94C60281E192E00E9445030E94D6
:10089000C6028BEE91E00E9445030E94C60285ECE1
:1008A00091E00E9445030E94C6028FE991E00E94F8
:1008B00045030E94C60289E791E00E9445030E9419
:1008C000C6020E94C60285E491E00E9445030E9490
:1008D000C6020E94C60290E080E00E948503853532
:1008E0009A4A09F437C31092090110920801109234
:1008F0000A0110920B0110920C0110920D0160E0A0
:1009000082E090E00E94730360E083E090E00E9448
:10091000730360E084E090E00E94730360E085E090
:1009200090E00E94730360E086E090E00E94730311
:1009300060E087E090E00E94730365E590E080E06E
:100940000E9473036AEA81E090E00E9473031092B0
:100950000E0110920F01109210011092110173FEFE
:1009600033C0E0900801F09009011FEFE11AF10A8D
:10097000F0920901E092080182E090E00E94850374
:10098000E816F90651F06E2D82E090E00E947303A4
:100990006F2D83E090E00E94730389E992E00E944A
:1009A00045030E94C6028FE692E00E944503C701FC
:1009B0000E942E030E94C60289E992E00E9445032C
:1009C0000E94C6020E94C6028BED92E00E9445037F
:1009D00080910801909109010E942E030E94C60295
:1009E00086EC92E00E94450320910A0130910B01B0
:1009F00040910C0150910D01CA01B90128EE33E07C
:100A000040E050E00E94DE0729833A834B835C83F9
:100A1000CA01B9010E94CC028EE095E00E94450314
:100A20000E94C6028EE593E00E94450383E393E0B3
:100A30000E9445030E94C60281E293E00E944503A2
:100A400084E690E00E942E038EE193E00E9445032D
:100A50000E94C60285E093E00E94450383E090E097
:100A60000E942E038EE095E00E9445030E94C6027C
:100A700080EF92E00E9445030E94C6020E94C602D7
:100A800081E394E00E9445030E94C60214BC15BC99
:100A900016BC84B5826084BD85B5826085BD85B590
:100AA000816085BD89EF87BD80916E0082608093F3
:100AB0006E0085E094E00E9445030E94C6021092F9
:100AC0008000109281001092850010928400809125
:100AD0008100886080938100809181008460809390
:100AE00081008091810081608093810087EB8093F9
:100AF00089008AE18093880080916F0082608093F2
:100B00006F0082E191E090931F0180931E0188EDB8
:100B100093E00E9445030E94C602F894A89588E1DC
:100B2000809360008FE080936000789478940E94B6
:100B3000530360930E0170930F0180931001909303
:100B400011010E9453036093040170930501809387
:100B50000601909307010E9453036093160170935E
:100B6000170180931801909319010E94C60289EA27
:100B700093E00E9445030E94C6028CE693E00E9427
:100B800045030E94C6020E94C60298EE492E93E0D9
:100B9000592E612C712C0E945303462F572FBC01F4
:100BA0008091040190910501A0910601B091070187
:100BB0008A019B01081B190B2A0B3B0BD901C801A9
:100BC00084369105A105B10508F4BDC04093040128
:100BD0005093050160930601709307018091120103
:100BE00090911301A0911401B09115010196A11DDE
:100BF000B11D8093120190931301A0931401B0933F
:100C0000150186E994E00E9445032091120130917C
:100C10001301409114015091150129833A834B83AC
:100C20005C83CA01B9010E94CC029FB7F8948091FD
:100C30002001109220019FBF8823D1F1C0901201A2
:100C4000D0901301E0901401F09015018091000103
:100C500090910101A0910201B0910301C81AD90A33
:100C6000EA0AFB0A33E0C316D104E104F10400F1FF
:100C70004601570141E0841A9108A108B10882E7B2
:100C800094E00E944503B7FE0BC08DE20E94BF02B4
:100C9000812C912C540183948C189D08AE08BF08B8
:100CA000C501B4010E94CC028DE694E00E94450388
:100CB00080E694E00E9445030E94530369837A838F
:100CC0008B839C8380910E0190910F01A091100164
:100CD000B091110109811A812B813C81081B190BEC
:100CE0002A0B3B0BC901B801A30192010E94DE0748
:100CF00029833A834B835C83CA01B9010E94CC02E9
:100D000082E594E00E9445032FB7F8948091210179
:100D1000909122012FBF0E942E038FE494E00E9445
:100D200045030E94C6028091120190911301A09187
:100D30001401B09115018093000190930101A093DB
:100D40000201B09303010E945303462F572FBC01A9
:100D50008091160190911701A0911801B09119018D
:100D60008A019B01081B190B2A0B3B0BD901C801F7
:100D700080319742A105B10508F4D9C0409316010E
:100D80005093170160931801709319010E94C602D5
:100D900081E295E00E9445030E94C60280E195E051
:100DA0000E9445030E94530369837A838B839C834B
:100DB00080910E0190910F01A0911001B09111014D
:100DC00029813A814B815C81281B390B4A0B5B0BD3
:100DD000CA01B901A30192010E94DE0729833A8367
:100DE0004B835C83CA01B9010E94CC028EE095E07E
:100DF0000E9445030E94C6028CEF94E00E944503C6
:100E00008091120190911301A0911401B0911501EC
:100E100089839A83AB83BC83BC01CD010E94CC0241
:100E20000E94C60288EE94E00E9445032FB7F89412
:100E300080912101909122012FBF0E942E030E94D8
:100E4000C60286ED94E00E944503A0900801B09090
:100E50000901C5010E942E030E94C60284EC94E0A1
:100E60000E944503C0900A01D0900B01E0900C0154
:100E7000F0900D010E94530369837A838B839C83D6
:100E800080910E0190910F01A0911001B09111017C
:100E9000C81AD90AEA0AFB0A09811A812B813C8106
:100EA000C00ED11EE21EF31EC114D104E104F104F0
:100EB00009F482C0A114B10409F47EC0A4E6B0E034
:100EC000A70196010E940F0869837A838B839C8314
:100ED0009501A0EDB7E00E9400086D837E838F83AB
:100EE00098879B01AC012C0D3D1D4E1D5F1D698136
:100EF0007A818B819C810E94DE07822F90E0B0E096
:100F0000A0E089839A83AB83BC83BC01CD010E949E
:100F1000CC0282EC94E00E9445030E94C60280EA63
:100F200094E00E9445030E94C6020E94C602A89552
:100F300032CE84E291E072FC0AC083E091E071FC61
:100F400006C087EE90E070FC02C088EC90E00E9442
:100F50004503BFCC82E090E00E9485039093090195
:100F60008093080184E090E00E947E03882E912CFB
:100F7000B12CA12C85E090E00E947E03682E86E0D3
:100F800090E00E947E0390E0B0E0A0E07C01DD24D0
:100F9000CC24D628C828D928EA28FB2887E090E066
:100FA0000E947E03F82AC0920A01D0920B01E092BF
:100FB0000C01F0920D01CBCC24E69FCFA1E21A2EBA
:100FC000AA1BBB1BFD010DC0AA1FBB1FEE1FFF1FED
:100FD000A217B307E407F50720F0A21BB30BE40B3D
:100FE000F50B661F771F881F991F1A9469F7609584
:100FF0007095809590959B01AC01BD01CF0108953E
:10100000A29FB001B39FC001A39F700D811D112449
:10101000911DB29F700D811D1124911D08950E9494
:101020000008A59F900DB49F900DA49F800D911D69
:0810300011240895F894FFCF8C
:00000001FF
